{
  "_format": "hh-sol-artifact-1",
  "contractName": "MyEpicNFT",
  "sourceName": "contracts/MyEpicNFT.sol",
  "abi": [
    {
      "inputs": [],
      "stateMutability": "nonpayable",
      "type": "constructor"
    },
    {
      "anonymous": false,
      "inputs": [
        {
          "indexed": true,
          "internalType": "address",
          "name": "owner",
          "type": "address"
        },
        {
          "indexed": true,
          "internalType": "address",
          "name": "approved",
          "type": "address"
        },
        {
          "indexed": true,
          "internalType": "uint256",
          "name": "tokenId",
          "type": "uint256"
        }
      ],
      "name": "Approval",
      "type": "event"
    },
    {
      "anonymous": false,
      "inputs": [
        {
          "indexed": true,
          "internalType": "address",
          "name": "owner",
          "type": "address"
        },
        {
          "indexed": true,
          "internalType": "address",
          "name": "operator",
          "type": "address"
        },
        {
          "indexed": false,
          "internalType": "bool",
          "name": "approved",
          "type": "bool"
        }
      ],
      "name": "ApprovalForAll",
      "type": "event"
    },
    {
      "anonymous": false,
      "inputs": [
        {
          "indexed": false,
          "internalType": "address",
          "name": "sender",
          "type": "address"
        },
        {
          "indexed": false,
          "internalType": "uint256",
          "name": "tokenId",
          "type": "uint256"
        }
      ],
      "name": "NewEpicNFTMinted",
      "type": "event"
    },
    {
      "anonymous": false,
      "inputs": [
        {
          "indexed": true,
          "internalType": "address",
          "name": "from",
          "type": "address"
        },
        {
          "indexed": true,
          "internalType": "address",
          "name": "to",
          "type": "address"
        },
        {
          "indexed": true,
          "internalType": "uint256",
          "name": "tokenId",
          "type": "uint256"
        }
      ],
      "name": "Transfer",
      "type": "event"
    },
    {
      "inputs": [
        {
          "internalType": "address",
          "name": "to",
          "type": "address"
        },
        {
          "internalType": "uint256",
          "name": "tokenId",
          "type": "uint256"
        }
      ],
      "name": "approve",
      "outputs": [],
      "stateMutability": "nonpayable",
      "type": "function"
    },
    {
      "inputs": [
        {
          "internalType": "address",
          "name": "owner",
          "type": "address"
        }
      ],
      "name": "balanceOf",
      "outputs": [
        {
          "internalType": "uint256",
          "name": "",
          "type": "uint256"
        }
      ],
      "stateMutability": "view",
      "type": "function"
    },
    {
      "inputs": [
        {
          "internalType": "uint256",
          "name": "tokenId",
          "type": "uint256"
        }
      ],
      "name": "getApproved",
      "outputs": [
        {
          "internalType": "address",
          "name": "",
          "type": "address"
        }
      ],
      "stateMutability": "view",
      "type": "function"
    },
    {
      "inputs": [],
      "name": "getTokenCounter",
      "outputs": [
        {
          "internalType": "uint256",
          "name": "",
          "type": "uint256"
        }
      ],
      "stateMutability": "view",
      "type": "function"
    },
    {
      "inputs": [
        {
          "internalType": "address",
          "name": "owner",
          "type": "address"
        },
        {
          "internalType": "address",
          "name": "operator",
          "type": "address"
        }
      ],
      "name": "isApprovedForAll",
      "outputs": [
        {
          "internalType": "bool",
          "name": "",
          "type": "bool"
        }
      ],
      "stateMutability": "view",
      "type": "function"
    },
    {
      "inputs": [],
      "name": "makeAnEpicNFT",
      "outputs": [],
      "stateMutability": "nonpayable",
      "type": "function"
    },
    {
      "inputs": [],
      "name": "maxItem",
      "outputs": [
        {
          "internalType": "uint256",
          "name": "",
          "type": "uint256"
        }
      ],
      "stateMutability": "view",
      "type": "function"
    },
    {
      "inputs": [],
      "name": "name",
      "outputs": [
        {
          "internalType": "string",
          "name": "",
          "type": "string"
        }
      ],
      "stateMutability": "view",
      "type": "function"
    },
    {
      "inputs": [
        {
          "internalType": "uint256",
          "name": "tokenId",
          "type": "uint256"
        }
      ],
      "name": "ownerOf",
      "outputs": [
        {
          "internalType": "address",
          "name": "",
          "type": "address"
        }
      ],
      "stateMutability": "view",
      "type": "function"
    },
    {
      "inputs": [
        {
          "internalType": "uint256",
          "name": "tokenId",
          "type": "uint256"
        }
      ],
      "name": "pickRandomFirstWord",
      "outputs": [
        {
          "internalType": "string",
          "name": "",
          "type": "string"
        }
      ],
      "stateMutability": "view",
      "type": "function"
    },
    {
      "inputs": [
        {
          "internalType": "uint256",
          "name": "tokenId",
          "type": "uint256"
        }
      ],
      "name": "pickRandomSecondWord",
      "outputs": [
        {
          "internalType": "string",
          "name": "",
          "type": "string"
        }
      ],
      "stateMutability": "view",
      "type": "function"
    },
    {
      "inputs": [
        {
          "internalType": "uint256",
          "name": "tokenId",
          "type": "uint256"
        }
      ],
      "name": "pickRandomThirdWord",
      "outputs": [
        {
          "internalType": "string",
          "name": "",
          "type": "string"
        }
      ],
      "stateMutability": "view",
      "type": "function"
    },
    {
      "inputs": [
        {
          "internalType": "address",
          "name": "from",
          "type": "address"
        },
        {
          "internalType": "address",
          "name": "to",
          "type": "address"
        },
        {
          "internalType": "uint256",
          "name": "tokenId",
          "type": "uint256"
        }
      ],
      "name": "safeTransferFrom",
      "outputs": [],
      "stateMutability": "nonpayable",
      "type": "function"
    },
    {
      "inputs": [
        {
          "internalType": "address",
          "name": "from",
          "type": "address"
        },
        {
          "internalType": "address",
          "name": "to",
          "type": "address"
        },
        {
          "internalType": "uint256",
          "name": "tokenId",
          "type": "uint256"
        },
        {
          "internalType": "bytes",
          "name": "data",
          "type": "bytes"
        }
      ],
      "name": "safeTransferFrom",
      "outputs": [],
      "stateMutability": "nonpayable",
      "type": "function"
    },
    {
      "inputs": [
        {
          "internalType": "address",
          "name": "operator",
          "type": "address"
        },
        {
          "internalType": "bool",
          "name": "approved",
          "type": "bool"
        }
      ],
      "name": "setApprovalForAll",
      "outputs": [],
      "stateMutability": "nonpayable",
      "type": "function"
    },
    {
      "inputs": [
        {
          "internalType": "bytes4",
          "name": "interfaceId",
          "type": "bytes4"
        }
      ],
      "name": "supportsInterface",
      "outputs": [
        {
          "internalType": "bool",
          "name": "",
          "type": "bool"
        }
      ],
      "stateMutability": "view",
      "type": "function"
    },
    {
      "inputs": [],
      "name": "symbol",
      "outputs": [
        {
          "internalType": "string",
          "name": "",
          "type": "string"
        }
      ],
      "stateMutability": "view",
      "type": "function"
    },
    {
      "inputs": [
        {
          "internalType": "uint256",
          "name": "tokenId",
          "type": "uint256"
        }
      ],
      "name": "tokenURI",
      "outputs": [
        {
          "internalType": "string",
          "name": "",
          "type": "string"
        }
      ],
      "stateMutability": "view",
      "type": "function"
    },
    {
      "inputs": [
        {
          "internalType": "address",
          "name": "from",
          "type": "address"
        },
        {
          "internalType": "address",
          "name": "to",
          "type": "address"
        },
        {
          "internalType": "uint256",
          "name": "tokenId",
          "type": "uint256"
        }
      ],
      "name": "transferFrom",
      "outputs": [],
      "stateMutability": "nonpayable",
      "type": "function"
    }
  ],
  "bytecode": "0x608060405260405180610160016040528061012d81526020016200472261012d913960089081620000319190620009d5565b506040518060c001604052806040518060400160405280600481526020017f457069630000000000000000000000000000000000000000000000000000000081525081526020016040518060400160405280600981526020017f46616e746173746963000000000000000000000000000000000000000000000081525081526020016040518060400160405280600581526020017f437275646500000000000000000000000000000000000000000000000000000081525081526020016040518060400160405280600581526020017f4372617a7900000000000000000000000000000000000000000000000000000081525081526020016040518060400160405280600a81526020017f4879737465726963616c0000000000000000000000000000000000000000000081525081526020016040518060400160405280600581526020017f4772616e640000000000000000000000000000000000000000000000000000008152508152506009906006620001af9291906200066e565b506040518060c001604052806040518060400160405280600481526020017f4d6574610000000000000000000000000000000000000000000000000000000081525081526020016040518060400160405280600481526020017f4c6976650000000000000000000000000000000000000000000000000000000081525081526020016040518060400160405280600381526020017f506f70000000000000000000000000000000000000000000000000000000000081525081526020016040518060400160405280600481526020017f437574650000000000000000000000000000000000000000000000000000000081525081526020016040518060400160405280600581526020017f537765657400000000000000000000000000000000000000000000000000000081525081526020016040518060400160405280600381526020017f486f740000000000000000000000000000000000000000000000000000000000815250815250600a9060066200032d9291906200066e565b506040518060c001604052806040518060400160405280600681526020017f4b697474656e000000000000000000000000000000000000000000000000000081525081526020016040518060400160405280600581526020017f507570707900000000000000000000000000000000000000000000000000000081525081526020016040518060400160405280600681526020017f4d6f6e6b6579000000000000000000000000000000000000000000000000000081525081526020016040518060400160405280600481526020017f426972640000000000000000000000000000000000000000000000000000000081525081526020016040518060400160405280600581526020017f50616e646100000000000000000000000000000000000000000000000000000081525081526020016040518060400160405280600881526020017f456c657068616e74000000000000000000000000000000000000000000000000815250815250600b906006620004ab9291906200066e565b50600a600c55348015620004be57600080fd5b506040518060400160405280600981526020017f5371756172654e465400000000000000000000000000000000000000000000008152506040518060400160405280600681526020017f535155415245000000000000000000000000000000000000000000000000000081525081600090816200053c9190620009d5565b5080600190816200054e9190620009d5565b5050506200059c6040518060400160405280601881526020017f54686973206973206d79204e465420636f6e74726163742e0000000000000000815250620005a260201b6200115e1760201c565b62000b6f565b6200064281604051602401620005b9919062000b4b565b6040516020818303038152906040527f41304fac000000000000000000000000000000000000000000000000000000007bffffffffffffffffffffffffffffffffffffffffffffffffffffffff19166020820180517bffffffffffffffffffffffffffffffffffffffffffffffffffffffff83818316178352505050506200064560201b60201c565b50565b60008151905060006a636f6e736f6c652e6c6f679050602083016000808483855afa5050505050565b828054828255906000526020600020908101928215620006bb579160200282015b82811115620006ba578251829081620006a99190620009d5565b50916020019190600101906200068f565b5b509050620006ca9190620006ce565b5090565b5b80821115620006f25760008181620006e89190620006f6565b50600101620006cf565b5090565b5080546200070490620007c4565b6000825580601f1062000718575062000739565b601f0160209004906000526020600020908101906200073891906200073c565b5b50565b5b80821115620007575760008160009055506001016200073d565b5090565b600081519050919050565b7f4e487b7100000000000000000000000000000000000000000000000000000000600052604160045260246000fd5b7f4e487b7100000000000000000000000000000000000000000000000000000000600052602260045260246000fd5b60006002820490506001821680620007dd57607f821691505b602082108103620007f357620007f262000795565b5b50919050565b60008190508160005260206000209050919050565b60006020601f8301049050919050565b600082821b905092915050565b6000600883026200085d7fffffffffffffffffffffffffffffffffffffffffffffffffffffffffffffffff826200081e565b6200086986836200081e565b95508019841693508086168417925050509392505050565b6000819050919050565b6000819050919050565b6000620008b6620008b0620008aa8462000881565b6200088b565b62000881565b9050919050565b6000819050919050565b620008d28362000895565b620008ea620008e182620008bd565b8484546200082b565b825550505050565b600090565b62000901620008f2565b6200090e818484620008c7565b505050565b5b8181101562000936576200092a600082620008f7565b60018101905062000914565b5050565b601f82111562000985576200094f81620007f9565b6200095a846200080e565b810160208510156200096a578190505b6200098262000979856200080e565b83018262000913565b50505b505050565b600082821c905092915050565b6000620009aa600019846008026200098a565b1980831691505092915050565b6000620009c5838362000997565b9150826002028217905092915050565b620009e0826200075b565b67ffffffffffffffff811115620009fc57620009fb62000766565b5b62000a088254620007c4565b62000a158282856200093a565b600060209050601f83116001811462000a4d576000841562000a38578287015190505b62000a448582620009b7565b86555062000ab4565b601f19841662000a5d86620007f9565b60005b8281101562000a875784890151825560018201915060208501945060208101905062000a60565b8683101562000aa7578489015162000aa3601f89168262000997565b8355505b6001600288020188555050505b505050505050565b600082825260208201905092915050565b60005b8381101562000aed57808201518184015260208101905062000ad0565b60008484015250505050565b6000601f19601f8301169050919050565b600062000b17826200075b565b62000b23818562000abc565b935062000b3581856020860162000acd565b62000b408162000af9565b840191505092915050565b6000602082019050818103600083015262000b67818462000b0a565b905092915050565b613ba38062000b7f6000396000f3fe608060405234801561001057600080fd5b50600436106101215760003560e01c806370a08231116100ad578063c575757a11610071578063c575757a1461032c578063c87b56dd1461035c578063d008b0561461038c578063de9d132f146103aa578063e985e9c5146103b457610121565b806370a082311461027657806395d89b41146102a6578063a22cb465146102c4578063b187301f146102e0578063b88d4fde1461031057610121565b806323b872dd116100f457806323b872dd146101c05780632de38d68146101dc57806342842e0e1461020c5780636352211e146102285780636e02007d1461025857610121565b806301ffc9a71461012657806306fdde0314610156578063081812fc14610174578063095ea7b3146101a4575b600080fd5b610140600480360381019061013b9190612458565b6103e4565b60405161014d91906124a0565b60405180910390f35b61015e6104c6565b60405161016b919061254b565b60405180910390f35b61018e600480360381019061018991906125a3565b610558565b60405161019b9190612611565b60405180910390f35b6101be60048036038101906101b99190612658565b61059e565b005b6101da60048036038101906101d59190612698565b6106b5565b005b6101f660048036038101906101f191906125a3565b610715565b604051610203919061254b565b60405180910390f35b61022660048036038101906102219190612698565b61088b565b005b610242600480360381019061023d91906125a3565b6108ab565b60405161024f9190612611565b60405180910390f35b610260610931565b60405161026d91906126fa565b60405180910390f35b610290600480360381019061028b9190612715565b610942565b60405161029d91906126fa565b60405180910390f35b6102ae6109f9565b6040516102bb919061254b565b60405180910390f35b6102de60048036038101906102d9919061276e565b610a8b565b005b6102fa60048036038101906102f591906125a3565b610aa1565b604051610307919061254b565b60405180910390f35b61032a600480360381019061032591906128e3565b610b99565b005b610346600480360381019061034191906125a3565b610bfb565b604051610353919061254b565b60405180910390f35b610376600480360381019061037191906125a3565b610cf3565b604051610383919061254b565b60405180910390f35b610394610e05565b6040516103a191906126fa565b60405180910390f35b6103b2610e0b565b005b6103ce60048036038101906103c99190612966565b6110ca565b6040516103db91906124a0565b60405180910390f35b60007f80ac58cd000000000000000000000000000000000000000000000000000000007bffffffffffffffffffffffffffffffffffffffffffffffffffffffff1916827bffffffffffffffffffffffffffffffffffffffffffffffffffffffff191614806104af57507f5b5e139f000000000000000000000000000000000000000000000000000000007bffffffffffffffffffffffffffffffffffffffffffffffffffffffff1916827bffffffffffffffffffffffffffffffffffffffffffffffffffffffff1916145b806104bf57506104be826111f7565b5b9050919050565b6060600080546104d5906129d5565b80601f0160208091040260200160405190810160405280929190818152602001828054610501906129d5565b801561054e5780601f106105235761010080835404028352916020019161054e565b820191906000526020600020905b81548152906001019060200180831161053157829003601f168201915b5050505050905090565b600061056382611261565b6004600083815260200190815260200160002060009054906101000a900473ffffffffffffffffffffffffffffffffffffffff169050919050565b60006105a9826108ab565b90508073ffffffffffffffffffffffffffffffffffffffff168373ffffffffffffffffffffffffffffffffffffffff1603610619576040517f08c379a000000000000000000000000000000000000000000000000000000000815260040161061090612a78565b60405180910390fd5b8073ffffffffffffffffffffffffffffffffffffffff166106386112ac565b73ffffffffffffffffffffffffffffffffffffffff1614806106675750610666816106616112ac565b6110ca565b5b6106a6576040517f08c379a000000000000000000000000000000000000000000000000000000000815260040161069d90612b0a565b60405180910390fd5b6106b083836112b4565b505050565b6106c66106c06112ac565b8261136d565b610705576040517f08c379a00000000000000000000000000000000000000000000000000000000081526004016106fc90612b9c565b60405180910390fd5b610710838383611402565b505050565b60606000610749610725846116fb565b6040516020016107359190612c44565b6040516020818303038152906040526117c9565b905061078a6040518060400160405280600d81526020017f72616e64202d20736565643a2000000000000000000000000000000000000000815250826117fc565b6009805490508161079b9190612c95565b90506107dc6040518060400160405280601381526020017f72616e64202d20666972737420776f72643a2000000000000000000000000000815250826117fc565b600981815481106107f0576107ef612cc6565b5b906000526020600020018054610805906129d5565b80601f0160208091040260200160405190810160405280929190818152602001828054610831906129d5565b801561087e5780601f106108535761010080835404028352916020019161087e565b820191906000526020600020905b81548152906001019060200180831161086157829003601f168201915b5050505050915050919050565b6108a683838360405180602001604052806000815250610b99565b505050565b6000806108b783611898565b9050600073ffffffffffffffffffffffffffffffffffffffff168173ffffffffffffffffffffffffffffffffffffffff1603610928576040517f08c379a000000000000000000000000000000000000000000000000000000000815260040161091f90612d41565b60405180910390fd5b80915050919050565b600061093d60076118d5565b905090565b60008073ffffffffffffffffffffffffffffffffffffffff168273ffffffffffffffffffffffffffffffffffffffff16036109b2576040517f08c379a00000000000000000000000000000000000000000000000000000000081526004016109a990612dd3565b60405180910390fd5b600360008373ffffffffffffffffffffffffffffffffffffffff1673ffffffffffffffffffffffffffffffffffffffff168152602001908152602001600020549050919050565b606060018054610a08906129d5565b80601f0160208091040260200160405190810160405280929190818152602001828054610a34906129d5565b8015610a815780601f10610a5657610100808354040283529160200191610a81565b820191906000526020600020905b815481529060010190602001808311610a6457829003601f168201915b5050505050905090565b610a9d610a966112ac565b83836118e3565b5050565b60606000610ad5610ab1846116fb565b604051602001610ac19190612e3f565b6040516020818303038152906040526117c9565b9050600a8054905081610ae89190612c95565b9050600a8181548110610afe57610afd612cc6565b5b906000526020600020018054610b13906129d5565b80601f0160208091040260200160405190810160405280929190818152602001828054610b3f906129d5565b8015610b8c5780601f10610b6157610100808354040283529160200191610b8c565b820191906000526020600020905b815481529060010190602001808311610b6f57829003601f168201915b5050505050915050919050565b610baa610ba46112ac565b8361136d565b610be9576040517f08c379a0000000000000000000000000000000000000000000000000000000008152600401610be090612b9c565b60405180910390fd5b610bf584848484611a4f565b50505050565b60606000610c2f610c0b846116fb565b604051602001610c1b9190612ead565b6040516020818303038152906040526117c9565b9050600b8054905081610c429190612c95565b9050600b8181548110610c5857610c57612cc6565b5b906000526020600020018054610c6d906129d5565b80601f0160208091040260200160405190810160405280929190818152602001828054610c99906129d5565b8015610ce65780601f10610cbb57610100808354040283529160200191610ce6565b820191906000526020600020905b815481529060010190602001808311610cc957829003601f168201915b5050505050915050919050565b6060610cfe82611261565b6000600660008481526020019081526020016000208054610d1e906129d5565b80601f0160208091040260200160405190810160405280929190818152602001828054610d4a906129d5565b8015610d975780601f10610d6c57610100808354040283529160200191610d97565b820191906000526020600020905b815481529060010190602001808311610d7a57829003601f168201915b505050505090506000610da8611aab565b90506000815103610dbd578192505050610e00565b600082511115610df2578082604051602001610dda929190612ecf565b60405160208183030381529060405292505050610e00565b610dfb84611ac2565b925050505b919050565b600c5481565b6000610e1760076118d5565b9050600c548110610e5d576040517f08c379a0000000000000000000000000000000000000000000000000000000008152600401610e5490612f3f565b60405180910390fd5b610e676007611b2a565b6000610e7360076118d5565b90506000610e8082610715565b90506000610e8d83610aa1565b90506000610e9a84610bfb565b90506000838383604051602001610eb393929190612f5f565b60405160208183030381529060405290506000600882604051602001610eda929190613074565b6040516020818303038152906040529050610f296040518060400160405280601581526020017f0a2d2d2d2d2d205356472064617461202d2d2d2d2d000000000000000000000081525061115e565b610f328161115e565b610f706040518060400160405280601581526020017f2d2d2d2d2d2d2d2d2d2d2d2d2d2d2d2d2d2d2d2d0a000000000000000000000081525061115e565b6000610fa483610f7f84611b40565b604051602001610f909291906131f9565b604051602081830303815290604052611b40565b9050600081604051602001610fb9919061328a565b60405160208183030381529060405290506110086040518060400160405280601581526020017f0a2d2d2d2d2d20546f6b656e20555249202d2d2d2d000000000000000000000081525061115e565b6110118161115e565b61104f6040518060400160405280601581526020017f2d2d2d2d2d2d2d2d2d2d2d2d2d2d2d2d2d2d2d2d0a000000000000000000000081525061115e565b6110593389611cd7565b6110638882611cf5565b7febb98688741ffa4c7589bf325de30cf7becb63de567842e1ccdb6cb949fdc82c33896040516110949291906132ac565b60405180910390a16110bf604051806060016040528060258152602001613b09602591398933611d62565b505050505050505050565b6000600560008473ffffffffffffffffffffffffffffffffffffffff1673ffffffffffffffffffffffffffffffffffffffff16815260200190815260200160002060008373ffffffffffffffffffffffffffffffffffffffff1673ffffffffffffffffffffffffffffffffffffffff16815260200190815260200160002060009054906101000a900460ff16905092915050565b6111f481604051602401611172919061254b565b6040516020818303038152906040527f41304fac000000000000000000000000000000000000000000000000000000007bffffffffffffffffffffffffffffffffffffffffffffffffffffffff19166020820180517bffffffffffffffffffffffffffffffffffffffffffffffffffffffff8381831617835250505050611e01565b50565b60007f01ffc9a7000000000000000000000000000000000000000000000000000000007bffffffffffffffffffffffffffffffffffffffffffffffffffffffff1916827bffffffffffffffffffffffffffffffffffffffffffffffffffffffff1916149050919050565b61126a81611e2a565b6112a9576040517f08c379a00000000000000000000000000000000000000000000000000000000081526004016112a090612d41565b60405180910390fd5b50565b600033905090565b816004600083815260200190815260200160002060006101000a81548173ffffffffffffffffffffffffffffffffffffffff021916908373ffffffffffffffffffffffffffffffffffffffff160217905550808273ffffffffffffffffffffffffffffffffffffffff16611327836108ab565b73ffffffffffffffffffffffffffffffffffffffff167f8c5be1e5ebec7d5bd14f71427d1e84f3dd0314c0f7b2291e5b200ac8c7c3b92560405160405180910390a45050565b600080611379836108ab565b90508073ffffffffffffffffffffffffffffffffffffffff168473ffffffffffffffffffffffffffffffffffffffff1614806113bb57506113ba81856110ca565b5b806113f957508373ffffffffffffffffffffffffffffffffffffffff166113e184610558565b73ffffffffffffffffffffffffffffffffffffffff16145b91505092915050565b8273ffffffffffffffffffffffffffffffffffffffff16611422826108ab565b73ffffffffffffffffffffffffffffffffffffffff1614611478576040517f08c379a000000000000000000000000000000000000000000000000000000000815260040161146f90613347565b60405180910390fd5b600073ffffffffffffffffffffffffffffffffffffffff168273ffffffffffffffffffffffffffffffffffffffff16036114e7576040517f08c379a00000000000000000000000000000000000000000000000000000000081526004016114de906133d9565b60405180910390fd5b6114f48383836001611e6b565b8273ffffffffffffffffffffffffffffffffffffffff16611514826108ab565b73ffffffffffffffffffffffffffffffffffffffff161461156a576040517f08c379a000000000000000000000000000000000000000000000000000000000815260040161156190613347565b60405180910390fd5b6004600082815260200190815260200160002060006101000a81549073ffffffffffffffffffffffffffffffffffffffff02191690556001600360008573ffffffffffffffffffffffffffffffffffffffff1673ffffffffffffffffffffffffffffffffffffffff168152602001908152602001600020600082825403925050819055506001600360008473ffffffffffffffffffffffffffffffffffffffff1673ffffffffffffffffffffffffffffffffffffffff16815260200190815260200160002060008282540192505081905550816002600083815260200190815260200160002060006101000a81548173ffffffffffffffffffffffffffffffffffffffff021916908373ffffffffffffffffffffffffffffffffffffffff160217905550808273ffffffffffffffffffffffffffffffffffffffff168473ffffffffffffffffffffffffffffffffffffffff167fddf252ad1be2c89b69c2b068fc378daa952ba7f163c4a11628f55a4df523b3ef60405160405180910390a46116f68383836001611e71565b505050565b60606000600161170a84611e77565b01905060008167ffffffffffffffff811115611729576117286127b8565b5b6040519080825280601f01601f19166020018201604052801561175b5781602001600182028036833780820191505090505b509050600082602001820190505b6001156117be578080600190039150507f3031323334353637383961626364656600000000000000000000000000000000600a86061a8153600a85816117b2576117b1612c66565b5b04945060008503611769575b819350505050919050565b6000816040516020016117dc91906133f9565b6040516020818303038152906040528051906020012060001c9050919050565b6118948282604051602401611812929190613410565b6040516020818303038152906040527fb60e72cc000000000000000000000000000000000000000000000000000000007bffffffffffffffffffffffffffffffffffffffffffffffffffffffff19166020820180517bffffffffffffffffffffffffffffffffffffffffffffffffffffffff8381831617835250505050611e01565b5050565b60006002600083815260200190815260200160002060009054906101000a900473ffffffffffffffffffffffffffffffffffffffff169050919050565b600081600001549050919050565b8173ffffffffffffffffffffffffffffffffffffffff168373ffffffffffffffffffffffffffffffffffffffff1603611951576040517f08c379a00000000000000000000000000000000000000000000000000000000081526004016119489061348c565b60405180910390fd5b80600560008573ffffffffffffffffffffffffffffffffffffffff1673ffffffffffffffffffffffffffffffffffffffff16815260200190815260200160002060008473ffffffffffffffffffffffffffffffffffffffff1673ffffffffffffffffffffffffffffffffffffffff16815260200190815260200160002060006101000a81548160ff0219169083151502179055508173ffffffffffffffffffffffffffffffffffffffff168373ffffffffffffffffffffffffffffffffffffffff167f17307eab39ab6107e8899845ad3d59bd9653f200f220920489ca2b5937696c3183604051611a4291906124a0565b60405180910390a3505050565b611a5a848484611402565b611a6684848484611fca565b611aa5576040517f08c379a0000000000000000000000000000000000000000000000000000000008152600401611a9c9061351e565b60405180910390fd5b50505050565b606060405180602001604052806000815250905090565b6060611acd82611261565b6000611ad7611aab565b90506000815111611af75760405180602001604052806000815250611b22565b80611b01846116fb565b604051602001611b12929190612ecf565b6040516020818303038152906040525b915050919050565b6001816000016000828254019250508190555050565b606060008251905060008103611b685760405180602001604052806000815250915050611cd2565b60006003600283611b79919061356d565b611b8391906135a1565b6004611b8f91906135d2565b90506000602082611ba0919061356d565b67ffffffffffffffff811115611bb957611bb86127b8565b5b6040519080825280601f01601f191660200182016040528015611beb5781602001600182028036833780820191505090505b5090506000604051806060016040528060408152602001613b2e604091399050600181016020830160005b86811015611c8f5760038101905062ffffff818a015116603f8160121c168401518060081b905060ff603f83600c1c1686015116810190508060081b905060ff603f8360061c1686015116810190508060081b905060ff603f831686015116810190508060e01b90508084526004840193505050611c16565b506003860660018114611ca95760028114611cb957611cc4565b613d3d60f01b6002830352611cc4565b603d60f81b60018303525b508484525050819450505050505b919050565b611cf1828260405180602001604052806000815250612151565b5050565b611cfe82611e2a565b611d3d576040517f08c379a0000000000000000000000000000000000000000000000000000000008152600401611d3490613686565b60405180910390fd5b80600660008481526020019081526020016000209081611d5d919061383d565b505050565b611dfc838383604051602401611d7a9392919061390f565b6040516020818303038152906040527f1c7ec448000000000000000000000000000000000000000000000000000000007bffffffffffffffffffffffffffffffffffffffffffffffffffffffff19166020820180517bffffffffffffffffffffffffffffffffffffffffffffffffffffffff8381831617835250505050611e01565b505050565b60008151905060006a636f6e736f6c652e6c6f679050602083016000808483855afa5050505050565b60008073ffffffffffffffffffffffffffffffffffffffff16611e4c83611898565b73ffffffffffffffffffffffffffffffffffffffff1614159050919050565b50505050565b50505050565b600080600090507a184f03e93ff9f4daa797ed6e38ed64bf6a1f0100000000000000008310611ed5577a184f03e93ff9f4daa797ed6e38ed64bf6a1f0100000000000000008381611ecb57611eca612c66565b5b0492506040810190505b6d04ee2d6d415b85acef81000000008310611f12576d04ee2d6d415b85acef81000000008381611f0857611f07612c66565b5b0492506020810190505b662386f26fc100008310611f4157662386f26fc100008381611f3757611f36612c66565b5b0492506010810190505b6305f5e1008310611f6a576305f5e1008381611f6057611f5f612c66565b5b0492506008810190505b6127108310611f8f576127108381611f8557611f84612c66565b5b0492506004810190505b60648310611fb25760648381611fa857611fa7612c66565b5b0492506002810190505b600a8310611fc1576001810190505b80915050919050565b6000611feb8473ffffffffffffffffffffffffffffffffffffffff166121ac565b15612144578373ffffffffffffffffffffffffffffffffffffffff1663150b7a026120146112ac565b8786866040518563ffffffff1660e01b815260040161203694939291906139a2565b6020604051808303816000875af192505050801561207257506040513d601f19601f8201168201806040525081019061206f9190613a03565b60015b6120f4573d80600081146120a2576040519150601f19603f3d011682016040523d82523d6000602084013e6120a7565b606091505b5060008151036120ec576040517f08c379a00000000000000000000000000000000000000000000000000000000081526004016120e39061351e565b60405180910390fd5b805181602001fd5b63150b7a0260e01b7bffffffffffffffffffffffffffffffffffffffffffffffffffffffff1916817bffffffffffffffffffffffffffffffffffffffffffffffffffffffff191614915050612149565b600190505b949350505050565b61215b83836121cf565b6121686000848484611fca565b6121a7576040517f08c379a000000000000000000000000000000000000000000000000000000000815260040161219e9061351e565b60405180910390fd5b505050565b6000808273ffffffffffffffffffffffffffffffffffffffff163b119050919050565b600073ffffffffffffffffffffffffffffffffffffffff168273ffffffffffffffffffffffffffffffffffffffff160361223e576040517f08c379a000000000000000000000000000000000000000000000000000000000815260040161223590613a7c565b60405180910390fd5b61224781611e2a565b15612287576040517f08c379a000000000000000000000000000000000000000000000000000000000815260040161227e90613ae8565b60405180910390fd5b612295600083836001611e6b565b61229e81611e2a565b156122de576040517f08c379a00000000000000000000000000000000000000000000000000000000081526004016122d590613ae8565b60405180910390fd5b6001600360008473ffffffffffffffffffffffffffffffffffffffff1673ffffffffffffffffffffffffffffffffffffffff16815260200190815260200160002060008282540192505081905550816002600083815260200190815260200160002060006101000a81548173ffffffffffffffffffffffffffffffffffffffff021916908373ffffffffffffffffffffffffffffffffffffffff160217905550808273ffffffffffffffffffffffffffffffffffffffff16600073ffffffffffffffffffffffffffffffffffffffff167fddf252ad1be2c89b69c2b068fc378daa952ba7f163c4a11628f55a4df523b3ef60405160405180910390a46123e8600083836001611e71565b5050565b6000604051905090565b600080fd5b600080fd5b60007fffffffff0000000000000000000000000000000000000000000000000000000082169050919050565b61243581612400565b811461244057600080fd5b50565b6000813590506124528161242c565b92915050565b60006020828403121561246e5761246d6123f6565b5b600061247c84828501612443565b91505092915050565b60008115159050919050565b61249a81612485565b82525050565b60006020820190506124b56000830184612491565b92915050565b600081519050919050565b600082825260208201905092915050565b60005b838110156124f55780820151818401526020810190506124da565b60008484015250505050565b6000601f19601f8301169050919050565b600061251d826124bb565b61252781856124c6565b93506125378185602086016124d7565b61254081612501565b840191505092915050565b600060208201905081810360008301526125658184612512565b905092915050565b6000819050919050565b6125808161256d565b811461258b57600080fd5b50565b60008135905061259d81612577565b92915050565b6000602082840312156125b9576125b86123f6565b5b60006125c78482850161258e565b91505092915050565b600073ffffffffffffffffffffffffffffffffffffffff82169050919050565b60006125fb826125d0565b9050919050565b61260b816125f0565b82525050565b60006020820190506126266000830184612602565b92915050565b612635816125f0565b811461264057600080fd5b50565b6000813590506126528161262c565b92915050565b6000806040838503121561266f5761266e6123f6565b5b600061267d85828601612643565b925050602061268e8582860161258e565b9150509250929050565b6000806000606084860312156126b1576126b06123f6565b5b60006126bf86828701612643565b93505060206126d086828701612643565b92505060406126e18682870161258e565b9150509250925092565b6126f48161256d565b82525050565b600060208201905061270f60008301846126eb565b92915050565b60006020828403121561272b5761272a6123f6565b5b600061273984828501612643565b91505092915050565b61274b81612485565b811461275657600080fd5b50565b60008135905061276881612742565b92915050565b60008060408385031215612785576127846123f6565b5b600061279385828601612643565b92505060206127a485828601612759565b9150509250929050565b600080fd5b600080fd5b7f4e487b7100000000000000000000000000000000000000000000000000000000600052604160045260246000fd5b6127f082612501565b810181811067ffffffffffffffff8211171561280f5761280e6127b8565b5b80604052505050565b60006128226123ec565b905061282e82826127e7565b919050565b600067ffffffffffffffff82111561284e5761284d6127b8565b5b61285782612501565b9050602081019050919050565b82818337600083830152505050565b600061288661288184612833565b612818565b9050828152602081018484840111156128a2576128a16127b3565b5b6128ad848285612864565b509392505050565b600082601f8301126128ca576128c96127ae565b5b81356128da848260208601612873565b91505092915050565b600080600080608085870312156128fd576128fc6123f6565b5b600061290b87828801612643565b945050602061291c87828801612643565b935050604061292d8782880161258e565b925050606085013567ffffffffffffffff81111561294e5761294d6123fb565b5b61295a878288016128b5565b91505092959194509250565b6000806040838503121561297d5761297c6123f6565b5b600061298b85828601612643565b925050602061299c85828601612643565b9150509250929050565b7f4e487b7100000000000000000000000000000000000000000000000000000000600052602260045260246000fd5b600060028204905060018216806129ed57607f821691505b602082108103612a00576129ff6129a6565b5b50919050565b7f4552433732313a20617070726f76616c20746f2063757272656e74206f776e6560008201527f7200000000000000000000000000000000000000000000000000000000000000602082015250565b6000612a626021836124c6565b9150612a6d82612a06565b604082019050919050565b60006020820190508181036000830152612a9181612a55565b9050919050565b7f4552433732313a20617070726f76652063616c6c6572206973206e6f7420746f60008201527f6b656e206f776e6572206f7220617070726f76656420666f7220616c6c000000602082015250565b6000612af4603d836124c6565b9150612aff82612a98565b604082019050919050565b60006020820190508181036000830152612b2381612ae7565b9050919050565b7f4552433732313a2063616c6c6572206973206e6f7420746f6b656e206f776e6560008201527f72206f7220617070726f76656400000000000000000000000000000000000000602082015250565b6000612b86602d836124c6565b9150612b9182612b2a565b604082019050919050565b60006020820190508181036000830152612bb581612b79565b9050919050565b600081905092915050565b7f46495253545f574f524400000000000000000000000000000000000000000000600082015250565b6000612bfd600a83612bbc565b9150612c0882612bc7565b600a82019050919050565b6000612c1e826124bb565b612c288185612bbc565b9350612c388185602086016124d7565b80840191505092915050565b6000612c4f82612bf0565b9150612c5b8284612c13565b915081905092915050565b7f4e487b7100000000000000000000000000000000000000000000000000000000600052601260045260246000fd5b6000612ca08261256d565b9150612cab8361256d565b925082612cbb57612cba612c66565b5b828206905092915050565b7f4e487b7100000000000000000000000000000000000000000000000000000000600052603260045260246000fd5b7f4552433732313a20696e76616c696420746f6b656e2049440000000000000000600082015250565b6000612d2b6018836124c6565b9150612d3682612cf5565b602082019050919050565b60006020820190508181036000830152612d5a81612d1e565b9050919050565b7f4552433732313a2061646472657373207a65726f206973206e6f74206120766160008201527f6c6964206f776e65720000000000000000000000000000000000000000000000602082015250565b6000612dbd6029836124c6565b9150612dc882612d61565b604082019050919050565b60006020820190508181036000830152612dec81612db0565b9050919050565b7f5345434f4e445f574f5244000000000000000000000000000000000000000000600082015250565b6000612e29600b83612bbc565b9150612e3482612df3565b600b82019050919050565b6000612e4a82612e1c565b9150612e568284612c13565b915081905092915050565b7f54484952445f574f524400000000000000000000000000000000000000000000600082015250565b6000612e97600a83612bbc565b9150612ea282612e61565b600a82019050919050565b6000612eb882612e8a565b9150612ec48284612c13565b915081905092915050565b6000612edb8285612c13565b9150612ee78284612c13565b91508190509392505050565b7f6d6178204e4654206c696d697420657863656564656400000000000000000000600082015250565b6000612f296016836124c6565b9150612f3482612ef3565b602082019050919050565b60006020820190508181036000830152612f5881612f1c565b9050919050565b6000612f6b8286612c13565b9150612f778285612c13565b9150612f838284612c13565b9150819050949350505050565b60008190508160005260206000209050919050565b60008154612fb2816129d5565b612fbc8186612bbc565b94506001821660008114612fd75760018114612fec5761301f565b60ff198316865281151582028601935061301f565b612ff585612f90565b60005b8381101561301757815481890152600182019150602081019050612ff8565b838801955050505b50505092915050565b7f3c2f746578743e3c2f7376673e00000000000000000000000000000000000000600082015250565b600061305e600d83612bbc565b915061306982613028565b600d82019050919050565b60006130808285612fa5565b915061308c8284612c13565b915061309782613051565b91508190509392505050565b7f7b226e616d65223a202200000000000000000000000000000000000000000000600082015250565b60006130d9600a83612bbc565b91506130e4826130a3565b600a82019050919050565b7f222c20226465736372697074696f6e223a20224120686967686c79206163636c60008201527f61696d656420636f6c6c656374696f6e206f6620737175617265732e222c226960208201527f6d616765223a2022646174613a696d6167652f7376672b786d6c3b626173653660408201527f342c000000000000000000000000000000000000000000000000000000000000606082015250565b6000613197606283612bbc565b91506131a2826130ef565b606282019050919050565b7f227d000000000000000000000000000000000000000000000000000000000000600082015250565b60006131e3600283612bbc565b91506131ee826131ad565b600282019050919050565b6000613204826130cc565b91506132108285612c13565b915061321b8261318a565b91506132278284612c13565b9150613232826131d6565b91508190509392505050565b7f646174613a6170706c69636174696f6e2f6a736f6e3b6261736536342c000000600082015250565b6000613274601d83612bbc565b915061327f8261323e565b601d82019050919050565b600061329582613267565b91506132a18284612c13565b915081905092915050565b60006040820190506132c16000830185612602565b6132ce60208301846126eb565b9392505050565b7f4552433732313a207472616e736665722066726f6d20696e636f72726563742060008201527f6f776e6572000000000000000000000000000000000000000000000000000000602082015250565b60006133316025836124c6565b915061333c826132d5565b604082019050919050565b6000602082019050818103600083015261336081613324565b9050919050565b7f4552433732313a207472616e7366657220746f20746865207a65726f2061646460008201527f7265737300000000000000000000000000000000000000000000000000000000602082015250565b60006133c36024836124c6565b91506133ce82613367565b604082019050919050565b600060208201905081810360008301526133f2816133b6565b9050919050565b60006134058284612c13565b915081905092915050565b6000604082019050818103600083015261342a8185612512565b905061343960208301846126eb565b9392505050565b7f4552433732313a20617070726f766520746f2063616c6c657200000000000000600082015250565b60006134766019836124c6565b915061348182613440565b602082019050919050565b600060208201905081810360008301526134a581613469565b9050919050565b7f4552433732313a207472616e7366657220746f206e6f6e20455243373231526560008201527f63656976657220696d706c656d656e7465720000000000000000000000000000602082015250565b60006135086032836124c6565b9150613513826134ac565b604082019050919050565b60006020820190508181036000830152613537816134fb565b9050919050565b7f4e487b7100000000000000000000000000000000000000000000000000000000600052601160045260246000fd5b60006135788261256d565b91506135838361256d565b925082820190508082111561359b5761359a61353e565b5b92915050565b60006135ac8261256d565b91506135b78361256d565b9250826135c7576135c6612c66565b5b828204905092915050565b60006135dd8261256d565b91506135e88361256d565b92508282026135f68161256d565b9150828204841483151761360d5761360c61353e565b5b5092915050565b7f45524337323155524953746f726167653a2055524920736574206f66206e6f6e60008201527f6578697374656e7420746f6b656e000000000000000000000000000000000000602082015250565b6000613670602e836124c6565b915061367b82613614565b604082019050919050565b6000602082019050818103600083015261369f81613663565b9050919050565b60006020601f8301049050919050565b600082821b905092915050565b6000600883026136f37fffffffffffffffffffffffffffffffffffffffffffffffffffffffffffffffff826136b6565b6136fd86836136b6565b95508019841693508086168417925050509392505050565b6000819050919050565b600061373a6137356137308461256d565b613715565b61256d565b9050919050565b6000819050919050565b6137548361371f565b61376861376082613741565b8484546136c3565b825550505050565b600090565b61377d613770565b61378881848461374b565b505050565b5b818110156137ac576137a1600082613775565b60018101905061378e565b5050565b601f8211156137f1576137c281612f90565b6137cb846136a6565b810160208510156137da578190505b6137ee6137e6856136a6565b83018261378d565b50505b505050565b600082821c905092915050565b6000613814600019846008026137f6565b1980831691505092915050565b600061382d8383613803565b9150826002028217905092915050565b613846826124bb565b67ffffffffffffffff81111561385f5761385e6127b8565b5b61386982546129d5565b6138748282856137b0565b600060209050601f8311600181146138a75760008415613895578287015190505b61389f8582613821565b865550613907565b601f1984166138b586612f90565b60005b828110156138dd578489015182556001820191506020850194506020810190506138b8565b868310156138fa57848901516138f6601f891682613803565b8355505b6001600288020188555050505b505050505050565b600060608201905081810360008301526139298186612512565b905061393860208301856126eb565b6139456040830184612602565b949350505050565b600081519050919050565b600082825260208201905092915050565b60006139748261394d565b61397e8185613958565b935061398e8185602086016124d7565b61399781612501565b840191505092915050565b60006080820190506139b76000830187612602565b6139c46020830186612602565b6139d160408301856126eb565b81810360608301526139e38184613969565b905095945050505050565b6000815190506139fd8161242c565b92915050565b600060208284031215613a1957613a186123f6565b5b6000613a27848285016139ee565b91505092915050565b7f4552433732313a206d696e7420746f20746865207a65726f2061646472657373600082015250565b6000613a666020836124c6565b9150613a7182613a30565b602082019050919050565b60006020820190508181036000830152613a9581613a59565b9050919050565b7f4552433732313a20746f6b656e20616c7265616479206d696e74656400000000600082015250565b6000613ad2601c836124c6565b9150613add82613a9c565b602082019050919050565b60006020820190508181036000830152613b0181613ac5565b905091905056fe416e204e465420772f20494420257320686173206265656e206d696e74656420746f2025734142434445464748494a4b4c4d4e4f505152535455565758595a6162636465666768696a6b6c6d6e6f707172737475767778797a303132333435363738392b2fa26469706673582212208e56f31f282b68cea49a45b32abef5ec4efac7ee5466eff2e8e666dbe91e8fe564736f6c634300081200333c73766720786d6c6e733d27687474703a2f2f7777772e77332e6f72672f323030302f73766727207072657365727665417370656374526174696f3d27784d696e594d696e206d656574272076696577426f783d273020302033353020333530273e3c7374796c653e2e62617365207b2066696c6c3a2077686974653b20666f6e742d66616d696c793a2073657269663b20666f6e742d73697a653a20323470783b207d3c2f7374796c653e3c726563742077696474683d273130302527206865696768743d2731303025272066696c6c3d2772656427202f3e3c7465787420783d273530252720793d273530252720636c6173733d27626173652720646f6d696e616e742d626173656c696e653d276d6964646c652720746578742d616e63686f723d276d6964646c65273e",
  "linkReferences": {},
  "deployedLinkReferences": {}
}